:03000000020BE50B
:0C0BE500787FE4F6D8FD758120020C2C0E
:08005A007F757EB8DEFEDFFCBD
:01006200227B
:0D002E003F065B4F666D7D077F6F79714067
:100E81009000F7EDF0539080E4F5C875C820EF901D
:100E9100002E93429012005A539080E4F5C875C811
:0E0EA100109000F7E090002E93429002005A4D
:100239004100A8004100A7004100AD004100B00005
:100249004100B70041009C0041009B004300B400FD
:1002590000004200AE00464200B200784200980019
:100269000042009600004200A500004200A9004695
:100279004200AB00784200B9000041009A004100F9
:10028900B8004100B10041009D004100A1004300B8
:0A0299009E0000004300A2000000D8
:10000E009000B4E090009EF09000B5E090009FF05C
:10001E009000B6E09000A0F02290009BE004F02249
:070F5100D2AFD2A8D2882222
:03000300020F49A0
:080F4900C2A8208C02D28C32F8
:10003E00E49000A8F09000A7F09000B0F09000AD12
:0C004E00F09000B7F090009BF0A3F022AF
:10050D0030B2059000B080039000ADE004F0900093
:10051D009CE004F0E0D394A07480948F4007C28CCB
:10052D00D2A802003E90009BE01460321460631468
:10053D0070030205C3240360030206339000B0E08C
:10054D00D3940040030206339000ADE0D39446509F
:10055D000302063A120027E49000B0F0802F9000BD
:10056D00B0E0FFFD9000ADE02DFDE433FCD3ED9444
:10057D008CEC648094804003020633EFD3940150D9
:10058D000302063A30A802C2A8120027E49000AD7B
:10059D00F0229000ADE0D3940140109000B0E090B7
:1005AD0000A8F0E49000B0F01200279000B0E0D366
:1005BD009419407980709000B0E0D39401405C9024
:1005CD0000ADE0FF9000A7F0E49000ADF090009B2F
:1005DD007402F09000B7E0131313541FFE24B4F50A
:1005ED0082E43400F583E0FD25E0F09000A8E0D32F
:1005FD009F400E74B42EF582E43400F583E044017F
:10060D00F09000B7E004F0E0D39417400EC28C12C6
:10061D00003E90009A7401F0D2A8229000ADE0D374
:0E062D0094194009800012003ED2A8C28C220F
:100AAE0090009AE064016003020B55F0C2A890001A
:100ABE00B1E0146012046003020B5312000E90009A
:100ACE00B17401F0020B539000B4E0FF90009EE071
:100ADE006F706F9000B5E0FE90009FE06E706390B7
:100AEE0000B6E0FD9000A0E06D70579000A2E06FA0
:100AFE007012A3E06E700DA3E0B5050890009DE0A6
:100B0E00702080009000B4E09000A2F09000B5E05C
:100B1E009000A3F09000B6E09000A4F09000B8749E
:100B2E0001F090009D7401F0120F77E49000B4F084
:100B3E00A3F0A3F090009EF0A3F0A3F09000B1F00C
:080B4E00800312000ED2A82260
:050F5F009000B8E0FF66
:010F6400226A
:060F6500E49000B8F02248
:050F6B0090009DE0FF75
:010F7000225E
:060F7100E490009DF02257
:0C02A3004100E00C4100E10C4100DF00D4
:070F5800E075F00AA4FF227E
:100DB0001200669000E0E0FFA3E0FD120E819000BB
:100DC000E2120F589000E5E02F9000C7F09000E38A
:100DD000120F589000E6E07C002FFFEC35F0FE7D0E
:100DE00014120ED99000BCEEF0A3EFF09000E412C4
:100DF0000F589000E7E02F75F014A49000C3F02284
:0402AF004100F90011
:100CE6009000F97401F0E49000F2F022EF75F00A3A
:100CF60084E5F0F09000E0E004F0E0C3940A22906E
:100D060000E0E09000E2F09000E1E09000E5F022E3
:100D16009000E0E09000E3F09000E1E09000E6F063
:100D2600229000E0E09000E4F09000E1E09000E71F
:100D3600F0229000E0E014F09000E17409F02290B7
:100D460000E1E004F0E0FFC3940A229000E1E01421
:020D5600F02289
:1000660020B77712005A20B77130B7FD9000DFE055
:1000760004F0E024FE601914604E240270599000CA
:10008600E0740BF09000E17401F09000DEF0804720
:100096009000DEE0FFB4010D9000E2E09000E0F099
:1000A6009000E5801CEFB4020D9000E3E09000E0C4
:1000B600F09000E6800B9000E4E09000E0F0900005
:1000C600E7E09000E1F0800FE49000DFF09000E1BF
:1000D600740CF09000E0F0120CE620B67C12005A88
:1000E60020B67630B6FD9000DFE024FE601B04707B
:1000F600659000DEE004F0E0B404037401F09000C3
:10010600DEE09000E1F002015C9000DEE024FE609B
:100116001D14602F2402703E9000E1E0B40904E44F
:10012600F080069000E1E004F0120D058028120D23
:1001360045400B120CF24006E4F09000E1F0120D7F
:10014600168013120D45400B120CF24006E4F09097
:1001560000E1F0120D27120CE630B4030201FA1288
:10016600005A30B4030201FA30B4FD9000DFE024F7
:10017600FE601A04707B9000DEE014F0E0700374F9
:1001860003F09000DEE09000E1F00201F79000DE5F
:10019600E024FE601A146039240270559000E1E0F4
:1001A60070057409F08003120D51120D05804290FE
:1001B60000E1E070149000E0E070097409F090002E
:1001C600E1F08008120D388003120D51120D1680D1
:1001D600209000E1E070149000E0E070097409F0EE
:1001E6009000E1F08008120D388003120D51120DB7
:1001F60027120CE620B33B12005A20B33530B3FD6C
:100206009000DFE07003F080069000DFE014F090CD
:1002160000DFE014600B0470169000E0740CF080B0
:100226000A9000E0740BF09000DEE09000E1F0121E
:030236000CE622B1
:0902B3004600E800000000000014
:1003C600120F0B120EEB120F51120E4575B104757A
:1003D600B221E4F5917592FF75CA30F5C9D2B0C263
:1003E60097C2B59000F6F09000F6E0FFC394065071
:1003F60021E42FFFE43404FE120EFB9000F6E02405
:10040600E8F582E43400F583EFF09000F6E004F0BE
:1004160080D59000E8E0FF9000E2F09000E9E090DF
:1004260000E5F09000EAE09000E3F09000EBE09049
:1004360000E6F09000ECE09000E4F09000EDE09033
:1004460000E7F0EFF4703C9000E2F09000E504F075
:10045600E49000E3F09000E67406F0E49000E4F027
:100466009000E77406F0E49000E8F0A304F0E4A33B
:10047600F0A37406F0E4A3F0A374061205031204B5
:10048600DD40FB120DB09000E2E0FF9000E8E0B521
:10049600070C9000E5E0FE9000E9E06E6034900005
:1004A600E8EFF09000E5E09000E9F09000E3E090DE
:1004B60000EAF09000E6E09000EBF09000E4E090B7
:1004C60000ECF09000E7E09000ED1205031204DD69
:0704D60040FB12074D80AC52
:1004DD009000F6E0FD2400FFE43404FE74E82DF5F1
:1004ED0082E43400F583E0FD120EAF9000F6E004D7
:1004FD00F0E0C3940622F0120E00E49000F6F02214
:0C02BC004100EF004100F1004100EE00A5
:1009F8009000EE7401F0E49000F5F09000A2E0FEA3
:100A0800EFFD3395E0FC74002DF58274003CF5830E
:100A1800EEF09000A3E0FF74322DF58274003CF5EF
:100A280083EFF09000A4E0FF74642DF58274003C1D
:100A3800F583EFF09000EFE004F022E0FF2401F5E9
:100A480082E43400F583E0FE74002FF582E434007C
:100A5800F583EEF09000F0E0FF2433F582E43400F3
:100A6800F583E0FE74322FF582E43400F583EEF06E
:100A78009000F0E0FF2465F582E43400F583E0FEA1
:100A880074642FF582E43400F583EEF09000F0E012
:100A9800229000EFE0FF3395E0FEA3E0C39FEE64F1
:060AA80080F87480982222
:10074D009000CFE014602A1470030207E3147003C5
:10075D000207FA240360030208251208346003021D
:10076D00082512082650031209F89000CF7403F0E3
:10077D0022C2B0D297120D589000C7E0FF9000C86A
:10078D00E06F704BC297F09000EFE06401701CA316
:10079D00F0120A995007120A4304F080F49000EF0A
:1007AD00E014F0C297E49000CFF022E49000F0F056
:1007BD00120A995007120A4304F080F49000EFE0FA
:1007CD0014F09000CF7403F09000F17401F02290BA
:1007DD0000CF7402F022120834700812082650035C
:1007ED001209F89000D0E06401702D8025120AAE38
:1007FD00120F5FEF64017012120F659000EFE0FFB2
:10080D00C3648094A850031209F89000CBE0B401A2
:10081D0007E4F09000CF04F022120F659000EFE096
:10082D00FFC3648094A822120AAE120F5FEF640119
:01083D002298
:0802C8004100DD004100DA00F5
:100B56009000DBE0FCA3E0FDC39000D9E09D90008F
:100B6600D8E09C229000DBA374049DF0E49C9000E6
:100B7600DBF0E49000D3F09000D8F0A3F022C2D8C6
:100B86009000D4E0FEA3E0F5EAEEF5FAE02290004C
:100B9600C0E004F09000C3E0FF9000C0E0D39F22C5
:100BA600E4F0A37403F09000D37401F022E4F0A300
:100BB60004F09000D3F0222450F09000D4E034C327
:100BC600F0229000DDE004F09000C3E0FF9000DD2D
:0F0BD600E0D39F222408F09000D6E03402F022F2
:03003B0002063B7F
:10063B00C0E0C0F0C083C082C0D075D0089000CF9E
:10064B00E014603A1460641470030207042403601E
:10065B0003020739120B84120BBD120F6BBF01087B
:10066B00120B9440031207449000DAE0640160031C
:10067B00020739120BC85003020739020730C2D8E0
:10068B009000D6120B89120BDA9000D9E004F070AF
:10069B00069000D8E004F09000D3E0B40104D2003F
:1006AB008002C200A20092B5020739120B84120B12
:1006BB00BD9000C6E004F09000CCE0FF9000C6E0D7
:1006CB00B50F17C2B5E4F09000D004F0C2D890007B
:1006DB00D6120B89120BDA020739120F6BBF010A04
:1006EB00120B94404912074480449000DAE06401F5
:1006FB00703C120BC84037802C120B84120BBD12AE
:10070B000F6BBF010D120B944008120F719000C0BC
:10071B00E4F09000DAE0B401159000DDE004F0E0C5
:10072B00D3947840099000DAE4F09000DDF0D0D05B
:10073B00D082D083D0F0D0E032120F719000C0E4A1
:02074B00F0229A
:100E4500E4120B7D9000D3F0C200C2B5D2AFE5A28B
:100E550054CFF5A2E4F5D8F5E9F5F9F5D9A374C3AE
:100E6500F0A37450F0A37402F0A37408F09000D6B8
:0C0E7500120B89120BDA75DA49D2DE226A
:080928009000F7EDF0A3EBF0E5
:100930009000DB120BB3E4120B7D120B5640FB90C0
:1009400000DBE4F0A3741F120B77120B5640FBA9D7
:1009500007E4FFFEE99000DB30E705120BA68003F9
:10096000120BB3E4120B7D120B5640FB120B6A12F2
:100970000B5640FBE925E0F90FBF00010EEF6408BC
:100980004E70D19000F7E0F9E4FEFFE99000DB3013
:10099000E705120BA68003120BB3120BACE4120B8B
:1009A0007D120B5640FB120B6A120B5640FBE925D9
:1009B000E0F90FBF00010EEF64084E70CE9000F812
:1009C000E0F9E4FEFFE99000DB30E705120BA680BA
:1009D00003120BB3120BACE4120B7D120B5640FB4F
:1009E000120B6A120B5640FBE925E0F90FBF00011C
:0709F0000EEF64084E70CE0B
:0109F70022DD
:1002D0006096000000000000000000000000000028
:1002E000000000000000000000000000000000000E
:1002F00000000000000000000000000000000000FE
:1003000000000000000000000000000000000000ED
:1003100000000000000000000000000000000000DD
:1003200000000000000000000000000000000000CD
:1003300000000000000000000000000000000000BD
:1003400000000000000000000000000000000000AD
:10035000000000000000000000000000000000009D
:0A0360000000000000000000000093
:100D58009000CD7401F0C2A8D28CD2A99000D6E040
:100D6800FEA3E0F5EAEEF5FAE02408F09000D6E0FC
:100D78003402F0C2B5900000E0FF900032E0FD9030
:100D88000064E0FB1209289000CDE070E6D2A8C20A
:100D98008CD2A99000C8E075F014A424199000CC56
:080DA800F09000C8E004F02205
:10036A004100BF004100D1004100CA004100CE0057
:10037A004100C0004100BB004100D2004100C10061
:10038A004100BE004100C9004100C2004200C40051
:10039A00004100CC014100CF004100C7024100C822
:0E03AA00004200BC00144100CB004100C378AB
:0E0F0B00438901758CFF758A9CD2AFD2A92252
:03000B00020C7173
:100C7100C0E0C0F0C083C082C0D075D000C000C049
:100C810001C002C003C004C005C006C007C28D7503
:100C91008CFF758A9C9000CFE0B4012B9000C5E0D9
:100CA10004F070069000C4E004F09000C4E0B41DAC
:100CB10019A3E0B44C149000C4E4F0A3F0D2B0C284
:100CC100979000CDF0800312050DD007D006D00516
:100CD100D004D003D002D001D000D0D0D082D083B4
:050CE100D0F0D0E0326C
:060F7700E49000C1F0222D
:0D03B8004200F300004100F5004100F2009A
:0A0F3F00B2979000F5E004F0E02204
:0300630002083E52
:10083E00C0E0C083C082C0D075D000C006C0079093
:10084E0000CFE0640360030208D99000F1E0702845
:10085E009000F4E004F070069000F3E004F09000D5
:10086E00BCE0FEA3E0FF9000F3E0B50634A3E0B5D4
:10087E00072F9000F3E480219000F4E004F070065E
:10088E009000F3E004F09000F3E07004A3E0641431
:10089E00700F9000F1F09000F3F0A3F09000CB04F5
:1008AE00F09000EEE0B4010B120F3FB40205900081
:1008BE00EEE4F09000F9E0640170529000F2E00472
:1008CE00F0E0646470479000F9802E9000F3E4F03D
:1008DE00A3F09000EEE0B4010B120F3FB4020590AE
:1008EE0000EEE4F09000F9E0B401229000F2E00492
:1008FE00F0E0B464189000F9E4F09000F2F090008B
:10090E00E0740CF09000E1F09000DFE4F0D007D03E
:0A091E0006D0D0D082D083D0E032A2
:100EEB00538EFB75D7B075D63C438E1043AF04229F
:0C0F33008FC4EEF5C375C65A75C6A52222
:100E00007F0A120EC57F007E04120F26E49000F7C1
:100E1000F0A3F09000F7E0FEA3E0FFC3EE940250D1
:100E20001DE42FFFEE3404FE120EFBBFFF109000F6
:100E3000F8E004F070DD9000F7E004F080D57F006A
:050E40007E04020F26F4
:100EC500AE071FEE600DE4FCFD0DED70010C4C60EE
:030ED500EF80F6B5
:010ED80022F7
:0D0F1900E4F5C7F5C5F5C675C380F5C42223
:0F0EFB0075C78275C501120F3300AFC2120F19F0
:010F0A0022C4
:100EAF0075C78275C5028FC4EEF5C3AF058FC21229
:060EBF000F3800020F19BC
:0D0F260075C78275C503120F3300020F1945
:100BF1000203C6E493A3F8E493A34003F68001F251
:100C010008DFF48029E493A3F85407240CC8C33304
:100C1100C4540F4420C8834004F456800146F6DFD3
:100C2100E4800B0102040810204080900239E47E28
:100C3100019360BCA3FF543F30E509541FFEE493C8
:100C4100A360010ECF54C025E060A840B8E493A38F
:100C5100FAE493A3F8E493A3C8C582C8CAC583CABA
:100C6100F0A3C8C582C8CAC583CADFE9DEE780BE72
:0103C5000037
:100ED900EF8DF0A4A8F0CF8CF0A428CE8DF0A42E2D
:020EE900FE22E7
:00000001FF
